{
  "_format": "hh-sol-artifact-1",
  "contractName": "ImageRegistry",
  "sourceName": "contracts/ImageRegistry.sol",
  "abi": [
    {
      "anonymous": false,
      "inputs": [
        {
          "indexed": true,
          "internalType": "bytes32",
          "name": "sha256Hash",
          "type": "bytes32"
        },
        {
          "indexed": true,
          "internalType": "bytes32",
          "name": "creatorHash",
          "type": "bytes32"
        },
        {
          "indexed": false,
          "internalType": "string",
          "name": "ipfsHash",
          "type": "string"
        },
        {
          "indexed": false,
          "internalType": "uint256",
          "name": "timestamp",
          "type": "uint256"
        }
      ],
      "name": "ImageRegistered",
      "type": "event"
    },
    {
      "anonymous": false,
      "inputs": [
        {
          "indexed": true,
          "internalType": "bytes32",
          "name": "sha256Hash",
          "type": "bytes32"
        },
        {
          "indexed": false,
          "internalType": "uint256",
          "name": "timestamp",
          "type": "uint256"
        }
      ],
      "name": "OwnershipProved",
      "type": "event"
    },
    {
      "inputs": [
        {
          "internalType": "bytes32",
          "name": "_sha256Hash",
          "type": "bytes32"
        }
      ],
      "name": "getImage",
      "outputs": [
        {
          "internalType": "bytes32",
          "name": "sha256Hash",
          "type": "bytes32"
        },
        {
          "internalType": "bytes32",
          "name": "creatorHash",
          "type": "bytes32"
        },
        {
          "internalType": "string",
          "name": "ipfsHash",
          "type": "string"
        },
        {
          "internalType": "string",
          "name": "title",
          "type": "string"
        },
        {
          "internalType": "string",
          "name": "description",
          "type": "string"
        },
        {
          "internalType": "uint256",
          "name": "timestamp",
          "type": "uint256"
        },
        {
          "internalType": "bool",
          "name": "verified",
          "type": "bool"
        }
      ],
      "stateMutability": "view",
      "type": "function"
    },
    {
      "inputs": [
        {
          "internalType": "bytes32",
          "name": "_sha256Hash",
          "type": "bytes32"
        }
      ],
      "name": "getImageStatus",
      "outputs": [
        {
          "internalType": "bool",
          "name": "exists",
          "type": "bool"
        },
        {
          "internalType": "bool",
          "name": "verified",
          "type": "bool"
        },
        {
          "internalType": "uint256",
          "name": "verifiedTime",
          "type": "uint256"
        }
      ],
      "stateMutability": "view",
      "type": "function"
    },
    {
      "inputs": [
        {
          "internalType": "bytes32",
          "name": "",
          "type": "bytes32"
        }
      ],
      "name": "imageExists",
      "outputs": [
        {
          "internalType": "bool",
          "name": "",
          "type": "bool"
        }
      ],
      "stateMutability": "view",
      "type": "function"
    },
    {
      "inputs": [
        {
          "internalType": "bytes32",
          "name": "",
          "type": "bytes32"
        }
      ],
      "name": "images",
      "outputs": [
        {
          "internalType": "bytes32",
          "name": "sha256Hash",
          "type": "bytes32"
        },
        {
          "internalType": "bytes32",
          "name": "creatorHash",
          "type": "bytes32"
        },
        {
          "internalType": "string",
          "name": "ipfsHash",
          "type": "string"
        },
        {
          "internalType": "string",
          "name": "title",
          "type": "string"
        },
        {
          "internalType": "string",
          "name": "description",
          "type": "string"
        },
        {
          "internalType": "uint256",
          "name": "timestamp",
          "type": "uint256"
        },
        {
          "internalType": "bool",
          "name": "isVerified",
          "type": "bool"
        }
      ],
      "stateMutability": "view",
      "type": "function"
    },
    {
      "inputs": [
        {
          "internalType": "bytes32",
          "name": "_sha256Hash",
          "type": "bytes32"
        },
        {
          "internalType": "bytes32",
          "name": "_creatorHash",
          "type": "bytes32"
        },
        {
          "internalType": "string",
          "name": "_ipfsHash",
          "type": "string"
        },
        {
          "internalType": "string",
          "name": "_title",
          "type": "string"
        },
        {
          "internalType": "string",
          "name": "_description",
          "type": "string"
        }
      ],
      "name": "registerImage",
      "outputs": [],
      "stateMutability": "nonpayable",
      "type": "function"
    },
    {
      "inputs": [
        {
          "internalType": "bytes32",
          "name": "_sha256Hash",
          "type": "bytes32"
        }
      ],
      "name": "setVerified",
      "outputs": [],
      "stateMutability": "nonpayable",
      "type": "function"
    },
    {
      "inputs": [
        {
          "internalType": "bytes32",
          "name": "_sha256Hash",
          "type": "bytes32"
        }
      ],
      "name": "verifyImage",
      "outputs": [
        {
          "internalType": "bool",
          "name": "",
          "type": "bool"
        }
      ],
      "stateMutability": "view",
      "type": "function"
    }
  ],
  "bytecode": "0x608060405234801561001057600080fd5b50610f39806100206000396000f3fe608060405234801561001057600080fd5b506004361061007d5760003560e01c80636ced1ae91161005b5780636ced1ae9146100ff5780638c58bb2b14610125578063d23c732c14610138578063e32564cd1461014b57600080fd5b80630eeb59c41461008257806323c6964914610097578063427770d6146100cc575b600080fd5b610095610090366004610bb5565b61016e565b005b6100aa6100a5366004610bb5565b610273565b6040805193151584529115156020840152908201526060015b60405180910390f35b6100ef6100da366004610bb5565b60016020526000908152604090205460ff1681565b60405190151581526020016100c3565b61011261010d366004610bb5565b6104b3565b6040516100c39796959493929190610c14565b610112610133366004610bb5565b610745565b610095610146366004610cbe565b61091c565b6100ef610159366004610bb5565b60009081526001602052604090205460ff1690565b60008181526001602052604090205460ff166101c35760405162461bcd60e51b815260206004820152600f60248201526e125b5859d9481b9bdd08199bdd5b99608a1b60448201526064015b60405180910390fd5b60008181526020819052604090206006015460ff16156102185760405162461bcd60e51b815260206004820152601060248201526f105b1c9958591e481d995c9a599a595960821b60448201526064016101ba565b60008181526020819052604090819020600601805460ff191660011790555181907f3e34462b31381af3bd1a768fb89951e62d927f01eba8239a213e5f0ee2e21e7c906102689042815260200190565b60405180910390a250565b6000818152600160205260408120548190819060ff1661029b575060009150819050806104ac565b600084815260208181526040808320815160e0810183528154815260018201549381019390935260028101805491928401916102d690610d6b565b80601f016020809104026020016040519081016040528092919081815260200182805461030290610d6b565b801561034f5780601f106103245761010080835404028352916020019161034f565b820191906000526020600020905b81548152906001019060200180831161033257829003601f168201915b5050505050815260200160038201805461036890610d6b565b80601f016020809104026020016040519081016040528092919081815260200182805461039490610d6b565b80156103e15780601f106103b6576101008083540402835291602001916103e1565b820191906000526020600020905b8154815290600101906020018083116103c457829003601f168201915b505050505081526020016004820180546103fa90610d6b565b80601f016020809104026020016040519081016040528092919081815260200182805461042690610d6b565b80156104735780601f1061044857610100808354040283529160200191610473565b820191906000526020600020905b81548152906001019060200180831161045657829003601f168201915b50505091835250506005820154602082015260069091015460ff16151560409091015260c081015160a090910151600195509093509150505b9193909250565b6000818152600160205260408120548190606090819081908490819060ff166105105760405162461bcd60e51b815260206004820152600f60248201526e125b5859d9481b9bdd08199bdd5b99608a1b60448201526064016101ba565b600088815260208181526040808320815160e08101835281548152600182015493810193909352600281018054919284019161054b90610d6b565b80601f016020809104026020016040519081016040528092919081815260200182805461057790610d6b565b80156105c45780601f10610599576101008083540402835291602001916105c4565b820191906000526020600020905b8154815290600101906020018083116105a757829003601f168201915b505050505081526020016003820180546105dd90610d6b565b80601f016020809104026020016040519081016040528092919081815260200182805461060990610d6b565b80156106565780601f1061062b57610100808354040283529160200191610656565b820191906000526020600020905b81548152906001019060200180831161063957829003601f168201915b5050505050815260200160048201805461066f90610d6b565b80601f016020809104026020016040519081016040528092919081815260200182805461069b90610d6b565b80156106e85780601f106106bd576101008083540402835291602001916106e8565b820191906000526020600020905b8154815290600101906020018083116106cb57829003601f168201915b5050509183525050600582015460208083019190915260069092015460ff161515604091820152825191830151908301516060840151608085015160a086015160c090960151949f939e50919c509a509850919650945092505050565b6000602081905290815260409020805460018201546002830180549293919261076d90610d6b565b80601f016020809104026020016040519081016040528092919081815260200182805461079990610d6b565b80156107e65780601f106107bb576101008083540402835291602001916107e6565b820191906000526020600020905b8154815290600101906020018083116107c957829003601f168201915b5050505050908060030180546107fb90610d6b565b80601f016020809104026020016040519081016040528092919081815260200182805461082790610d6b565b80156108745780601f1061084957610100808354040283529160200191610874565b820191906000526020600020905b81548152906001019060200180831161085757829003601f168201915b50505050509080600401805461088990610d6b565b80601f01602080910402602001604051908101604052809291908181526020018280546108b590610d6b565b80156109025780601f106108d757610100808354040283529160200191610902565b820191906000526020600020905b8154815290600101906020018083116108e557829003601f168201915b50505050600583015460069093015491929160ff16905087565b60008881526001602052604090205460ff161561097b5760405162461bcd60e51b815260206004820152601860248201527f496d61676520616c72656164792072656769737465726564000000000000000060448201526064016101ba565b60648311156109bd5760405162461bcd60e51b815260206004820152600e60248201526d5469746c6520746f6f206c6f6e6760901b60448201526064016101ba565b6101f48111156109ff5760405162461bcd60e51b815260206004820152600d60248201526c4465736320746f6f206c6f6e6760981b60448201526064016101ba565b6040518060e0016040528089815260200188815260200187878080601f016020809104026020016040519081016040528093929190818152602001838380828437600092019190915250505090825250604080516020601f880181900481028201810190925286815291810191908790879081908401838280828437600092019190915250505090825250604080516020601f8601819004810282018101909252848152918101919085908590819084018382808284376000920182905250938552505042602080850191909152600160409485018190528d84528382529284902085518155908501519281019290925550908201516002820190610b049082610e0a565b5060608201516003820190610b199082610e0a565b5060808201516004820190610b2e9082610e0a565b5060a0820151600582015560c0909101516006909101805491151560ff1992831617905560008981526001602081905260409182902080549093161790915551879089907fa6f8b18e8c0e6ee798a24c17cc6f3163f0c36867e4eca437e4eb27b09892a5f490610ba3908a908a904290610eca565b60405180910390a35050505050505050565b600060208284031215610bc757600080fd5b5035919050565b6000815180845260005b81811015610bf457602081850181015186830182015201610bd8565b506000602082860101526020601f19601f83011685010191505092915050565b87815286602082015260e060408201526000610c3360e0830188610bce565b8281036060840152610c458188610bce565b90508281036080840152610c598187610bce565b60a0840195909552505090151560c09091015295945050505050565b60008083601f840112610c8757600080fd5b50813567ffffffffffffffff811115610c9f57600080fd5b602083019150836020828501011115610cb757600080fd5b9250929050565b60008060008060008060008060a0898b031215610cda57600080fd5b8835975060208901359650604089013567ffffffffffffffff80821115610d0057600080fd5b610d0c8c838d01610c75565b909850965060608b0135915080821115610d2557600080fd5b610d318c838d01610c75565b909650945060808b0135915080821115610d4a57600080fd5b50610d578b828c01610c75565b999c989b5096995094979396929594505050565b600181811c90821680610d7f57607f821691505b602082108103610d9f57634e487b7160e01b600052602260045260246000fd5b50919050565b634e487b7160e01b600052604160045260246000fd5b601f821115610e0557600081815260208120601f850160051c81016020861015610de25750805b601f850160051c820191505b81811015610e0157828155600101610dee565b5050505b505050565b815167ffffffffffffffff811115610e2457610e24610da5565b610e3881610e328454610d6b565b84610dbb565b602080601f831160018114610e6d5760008415610e555750858301515b600019600386901b1c1916600185901b178555610e01565b600085815260208120601f198616915b82811015610e9c57888601518255948401946001909101908401610e7d565b5085821015610eba5787850151600019600388901b60f8161c191681555b5050505050600190811b01905550565b604081528260408201528284606083013760006060848301015260006060601f19601f860116830101905082602083015294935050505056fea2646970667358221220170b0e35b3cf34b3220bea442a24cdd38a533cfa4ea5eccfedd6b83ef167bd7364736f6c63430008140033",
  "linkReferences": {},
  "deployedLinkReferences": {}
}